:100000000C94E0000C9408010C9408010C94110C61
:100010000C94110C0C94110C0C9408010C94080114
:100020000C9408010C9408010C9408010C9408012C
:100030000C9408010C941B0C0C9408010C940801FE
:100040000C94C70B0C9408010C94950B0C946F0B3B
:100050000C9408010C9408010C9408010C940801FC
:100060000C9408010C94080100407A10F35A00A087
:10007000724E18090010A5D4E80000E87648170071
:1000800000E40B54020000CA9A3B000000E1F505B1
:10009000000080969800000040420F000000A086FB
:1000A00001000000102700000000E803000000002D
:1000B0006400000000000A000000000001000000D1
:1000C00000002C76D888DC674F0823DFC1DFAE59EB
:1000D000E1B1B796E5E3E453C63AE651997696E87E
:1000E000E6C28426EB898C9B62ED407C6FFCEFBC02
:1000F0009C9F40F2BAA56FA5F490055A2AF75C932D
:100100006B6CF9676DC11BFCE0E40D47FEF520E662
:10011000B500D0ED902E0300943577050080841E45
:10012000080000204E0A000000C80C333333330FA0
:10013000986E12831141EF8D2114893BE65516CF3D
:10014000FEE6DB18D1844B381BF77C1D901DA4BB49
:10015000E424203284725E228100C9F124ECA1E5FE
:100160003D2700000000250028002B0000000000B3
:1001700023002600290000000008000201000003FF
:100180000407000000000000000000000000240040
:1001900027002A0001020408102040800102040800
:1001A00010200102040810200404040404040404C0
:1001B000020202020202030303030303670C281670
:1001C00011241FBECFEFD8E0DEBFCDBF23E0A8E4EF
:1001D000B2E001C01D92A538B207E1F712E0A0E03D
:1001E000B1E0E8E9FAE302C005900D92A834B10746
:1001F000D9F710E0CFEDD0E004C02197FE010E94B6
:10020000381BCE3DD107C9F70E94020D0C943F1D4B
:100210000C94000083E090E00197F1F71EBC000011
:100220000DB407FEFDCF8EB50895682F809134037D
:1002300090913503892B59F48091300390913103CB
:10024000DC01ED91FC910190F081E02D099483E0B7
:1002500090E00197F1F76EBD00000DB407FEFDCFF1
:100260008EB50895CF93C82F8091340390913503B4
:10027000892B31F487E50E9415018BEA0E94150154
:100280008C2FCF910C941501CF92DF92EF92FF92B9
:10029000CF93DF93EC016A017B01E889F98982E061
:1002A0008083C11481EED806E104F104A1F060E07E
:1002B00079E08DE390E0A70196010E94021B215096
:1002C00031094109510956954795379527952115CB
:1002D00080E1380798F0E889F989108260E874E8CD
:1002E0008EE190E0A70196010E94021B2150310986
:1002F000410951095695479537952795EC85FD8518
:100300003083EE85FF852083188EEC89FD8986E099
:100310008083EA89FB89808180618083EA89FB8907
:10032000808188608083EA89FB89808180688083FE
:10033000EA89FB8980818F7D8083DF91CF91FF9057
:10034000EF90DF90CF9008950895AF92BF92CF9233
:10035000DF92EF92FF920F931F93CF93DF936C0185
:100360007B018B01040F151FEB015E01AE18BF0866
:10037000C017D10759F06991D601ED91FC91019018
:10038000F081E02DC6010995892B79F7C501DF9130
:10039000CF911F910F91FF90EF90DF90CF90BF9082
:1003A000AF900895FC01538D448D252F30E0842FAC
:1003B00090E0821B930B541710F0CF96089501978D
:1003C0000895FC01918D828D981761F0A28DAE0F7A
:1003D000BF2FB11D5D968C91928D9F5F9F73928F01
:1003E00090E008958FEF9FEF0895FC01918D828D2D
:1003F000981731F0828DE80FF11D858D90E00895FA
:100400008FEF9FEF0895FC01918D228D892F90E051
:10041000805C9F4F821B91098F73992708958DE609
:1004200092E00E94030221E0892B09F420E0822F50
:10043000089580E090E0892B29F00E940F0281113D
:100440000C9400000895FC01A48DA80FB92FB11DD4
:10045000A35ABF4F2C91848D90E001968F739927FA
:10046000848FA689B7892C93A089B1898C918370D8
:1004700080648C93938D848D981306C00288F389D1
:10048000E02D80818F7D80830895EF92FF920F93FE
:100490001F93CF93DF93EC0181E0888F9B8D8C8D30
:1004A00098131AC0E889F989808185FF15C09FB724
:1004B000F894EE89FF896083E889F98980818370E7
:1004C000806480839FBF81E090E0DF91CF911F9196
:1004D0000F91FF90EF900895F62E0B8D10E00F5FB7
:1004E0001F4F0F731127E02E8C8D8E110CC00FB68D
:1004F00007FCFACFE889F989808185FFF5CFCE0125
:100500000E942302F1CFEB8DEC0FFD2FF11DE35A7A
:10051000FF4FF0829FB7F8940B8FEA89FB898081A7
:100520008062CFCFCF93DF93EC01888D8823B9F021
:10053000AA89BB89E889F9898C9185FD03C08081EE
:1005400086FD0DC00FB607FCF7CF8C9185FFF2CF6B
:10055000808185FFEDCFCE010E942302E9CFDF919C
:10056000CF910895833081F028F4813099F0823062
:10057000A9F008958730A9F08830C9F08430B1F42B
:10058000809180008F7D03C0809180008F77809361
:100590008000089584B58F7784BD089584B58F7DDC
:1005A000FBCF8091B0008F778093B0000895809149
:1005B000B0008F7DF9CFCF93DF93282F30E0F90182
:1005C000EA58FE4F8491F901EC56FE4FD491F9019F
:1005D000E855FE4FC491CC23A1F081110E94B202D4
:1005E000EC2FF0E0EE0FFF1FE459FE4FA591B49100
:1005F000EC91ED2381E090E009F480E0DF91CF9170
:10060000089580E090E0FACF1F93CF93DF93282FD7
:1006100030E0F901EA58FE4F8491F901EC56FE4FA3
:10062000D491F901E855FE4FC491CC23A9F0162FBF
:1006300081110E94B202EC2FF0E0EE0FFF1FEE5985
:10064000FE4FA591B4918FB7F894EC91111108C0A9
:10065000D095DE23DC938FBFDF91CF911F9108955A
:10066000DE2BF8CF61E0809115030C94040383E046
:1006700090E00197F1F7EAE0F3E090A581A59CBD39
:100680008DBD60E083850C940403CF930E943703F3
:1006900082E20E9432010E940A01C82F0E943203A6
:1006A0008C2FCF910895CF92DF92EF92FF921F93FC
:1006B000CF93DF9310E0C7E0D0E083E2E82EF12C87
:1006C000CC24C394D12C60E080916A020E94040380
:1006D000C7010197F1F780916B020E94DB02892B21
:1006E00039F0C6010C2E01C0880F0A94EAF7182BC6
:1006F00061E080916A020E940403C7010197F1F74B
:10070000219708F7812FDF91CF911F91FF90EF90F4
:10071000DF90CF900895CF93DF9390E0FC01EC56EB
:10072000FE4F249188559E4FFC0184918823C9F087
:1007300090E0880F991FFC01E657FE4FA591B491F8
:10074000FC01EE59FE4FC591D49161110DC09FB7C8
:10075000F8948C91209582238C9388812823288378
:100760009FBFDF91CF910895623051F49FB7F89405
:100770003C91822F809583238C93E8812E2BEFCFA1
:100780008FB7F894EC912E2B2C938FBFEACF3FB705
:10079000F89480914F0290915002A0915102B09133
:1007A000520226B5A89B05C02F3F19F00196A11D46
:1007B000B11D3FBFBA2FA92F982F8827BC01CD01AB
:1007C000620F711D811D911D42E0660F771F881F0A
:1007D000991F4A95D1F708958F929F92AF92BF9239
:1007E000CF92DF92EF92FF924B015C010E94C70310
:1007F0006B017C010E94C7036C197D098E099F095A
:10080000683E734081059105A8F321E0821A9108A2
:10081000A108B10888EEC80E83E0D81EE11CF11CC7
:1008200081149104A104B10429F7FF90EF90DF90A7
:10083000CF90BF90AF909F908F9008952FB7F8946E
:1008400060914B0270914C0280914D0290914E024A
:100850002FBF089590E080E008950895CF93DF932F
:10086000EC0160E08E810E94040361E08E810E94B1
:10087000040360E08E810E9404038BE891E00197FD
:10088000F1F7DF91CF910895CF92DF92EF92FF922F
:100890000F931F93CF93DF936C017C0187E0E80EE9
:1008A000F11CD0E0C0E0062F10E0B8010C2E02C011
:1008B000759567950A94E2F76170F70181917F0160
:1008C0000E9404032196C430D10579F7C601DF9157
:1008D000CF911F910F91FF90EF90DF90CF900C94EC
:1008E0002E04CF92DF92EF92FF920F931F93CF933C
:1008F000DF93EC01F62E642F8C810E9404038D811E
:100900008F3F19F060E00E9404030F2D10E08F85E7
:1009100084FF25C06E0187E0C80ED11CF12CE12CAC
:10092000B8010E2C02C0759567950A94E2F76170C4
:10093000F60181916F010E940403FFEFEF1AFF0A95
:1009400088E0E816F10461F7CE01DF91CF911F91A5
:100950000F91FF90EF90DF90CF900C942E04B80190
:1009600084E0759567958A95E1F7CE010E9444046D
:100970006F2DCE01DF91CF911F910F91FF90EF90DE
:10098000DF90CF900C94440440E0682F81E693E020
:100990000C94710490917403691710F06FEF690F54
:1009A000E62FF0E0EF59FC4F9489890F80680C9492
:1009B000C40481E00E94C4048BE39FE10197F1F736
:1009C0000895CF93DF93823029F49091700398605B
:1009D00090937003809374031092750380E4809366
:1009E000760380E18093770380E58093780361E06C
:1009F000809165030E948B03809166038F3F19F0FD
:100A000061E00E948B0361E0809167030E948B0389
:100A1000C1E6D3E09E01215633408091700384FDEE
:100A20000BC084E090E021962817390744F461E078
:100A30008E810E948B03EECF88E090E0F4CF8BE3B1
:100A40009DE00197F1F760E0809165030E94040347
:100A500060E0809167030E940403809166038F3FEA
:100A600019F060E00E9404038091700384FD34C09B
:100A700063E081E693E00E944404CBE4D6E4CE0137
:100A80000197F1F763E081E693E00E944404219727
:100A9000F1F763E081E693E00E94440483E592E08D
:100AA0000197F1F762E081E693E00E9444048091AF
:100AB000700380620E94C40484E0809371038CE020
:100AC0000E94C4040E94D90482E08093720386E0ED
:100AD000DF91CF910C94C40480620E94C4048BE423
:100AE00096E40197F1F78091700380620E94C4043C
:100AF00083E592E00197F1F78091700380620E9494
:100B0000C404D5CF41E00E94710481E090E00895D3
:100B1000FB0101900020E9F73197AF01461B570B0D
:100B2000DC01ED91FC910280F381E02D09948F921C
:100B30009F92AF92BF920F931F93CF93DF93CDB746
:100B4000DEB7A1970FB6F894DEBF0FBECDBF19A2D6
:100B5000423008F44AE08E010F5D1F4F842E912C25
:100B6000B12CA12CA50194010E94021BE62FB90112
:100B7000CA01EA3004F5E05DD801EE938D01232B24
:100B8000242B252B79F790E080E0109729F0BD0108
:100B900081E693E00E948805A1960FB6F894DEBF27
:100BA0000FBECDBFDF91CF911F910F91BF90AF903E
:100BB0009F908F900895E95CDFCFCF92DF92EF9204
:100BC000FF926C01092E000CEE08FF0897FF16C07B
:100BD00041E06DE281E693E00E9471046627772789
:100BE000CB016C197D098E099F094AE00E94970587
:100BF0000196FF90EF90DF90CF9008954AE0C701F3
:100C0000B601FF90EF90DF90CF900C94970561159F
:100C1000710511F00C94880590E080E008958F92A2
:100C20009F92AF92BF92CF92DF92EF92FF92CF93BB
:100C3000DF9360E080916C020E94040383E290E005
:100C40000197F1F70E945303C82FD0E0DC2FCC2787
:100C50000E945303C82B61E080916C020E94040340
:100C6000C2FD07C183E0D695C7958A95E1F7BE011D
:100C700090E080E00E94DC1820E030E040E85EE395
:100C80000E943D19609358027093590280935A0252
:100C900090935B0280916502823009F0C0C0809120
:100CA00062029091630260E17EE00E94EE1A5B01B5
:100CB000EC016CE370E00E94EE1A6B017C0160E0D5
:100CC00080E00E94CA0490E080E00E94DD0560E0C0
:100CD00081E00E94CA04C5010E94DD0560E082E057
:100CE0000E94CA046DE271E081E693E00E9407066B
:100CF00060E083E00E94CA04CE0168E572E00E94D1
:100D0000EE1ACB010E94DD0560E084E00E94CA0477
:100D1000CAE0D0E0C601BE010E94EE1A0E94DD05C5
:100D200060E085E00E94CA046DE271E081E693E034
:100D30000E94070660E086E00E94CA04C701BE0167
:100D40000E94EE1AEC01CB010E94DD0560E087E015
:100D50000E94CA04CE010E94DD0560E088E00E9486
:100D6000CA0460ED71E081E693E00E94070660E04E
:100D700089E00E94CA04C0905802D0905902E090C5
:100D80005A02F0905B02A7019601C701B6010E94CA
:100D9000E91A6FE271E081111BC046015701E89426
:100DA000B7F82FEF3FEF4FE75FE7C501B4010E94AF
:100DB000E91A811163C02FEF3FEF4FE75FE7C501ED
:100DC000B4010E94D71818160CF058C063E371E004
:100DD00081E693E00E94880560E08EE00E94CA04EC
:100DE00041E06FED81E693E00E94710460E08FE0E6
:100DF0000E94CA046BE371E081E693E00E9407065B
:100E00008091690261E0882309F495C080E00E9426
:100E1000CA046DE371E081E693E00E9407068091C9
:100E2000600290916102CC9739F481E080930001D7
:100E300010926102109260028091600290916102B2
:100E4000019690936102809360028091620290917A
:100E5000630201969093630280936202DF91CF91C7
:100E6000FF90EF90DF90CF90BF90AF909F908F90CA
:100E7000089560E070E080EC9FE704CF2FEF3FEF34
:100E80004FE75FE4C701B6010E94E41A18161CF48C
:100E900067E371E09DCF2FEF3FEF4FE75FECC701B6
:100EA000B6010E94D71887FDF3CF20E030E0A901FA
:100EB000C701B6010E94D71887FF0AC041E06DE262
:100EC00081E693E00E947104F7FAF094F7F8F09449
:100ED0002DEC3CEC4CE45DE3C701B6010E94491ADD
:100EE0004B015C010E94B51A6B017C010E94DC1869
:100EF0009B01AC01C501B4010E94481A4B015C0181
:100F00004AE0C701B6010E94970541E06EE281E622
:100F100093E00E94710420E030E040E251E4C5011A
:100F2000B4010E943D190E94B51A90E080E04AE0A9
:100F30000E94970551CF80E00E94CA046EE471E0E0
:100F40006ACFE8E3F3E080E2DF011D928A95E9F7DA
:100F5000EAE0F3E0108E168217861686148A158A48
:100F6000168A178A15820895EAE0F3E085871282CF
:100F700017821086118615A614A6E8E5F3E089E02D
:100F8000DF011D928A95E9F70C94A107CF92DF92B9
:100F9000EF92FF920E941E046B017C01809130034E
:100FA00090913103DC01ED91FC910084F185E02DFD
:100FB0000995892BA1F40E941E046C197D098E09E4
:100FC0009F09693E73408105910540F382E00E94CC
:100FD000B40780E0FF90EF90DF90CF90089580916C
:100FE000300390913103DC01ED91FC910284F38593
:100FF000E02D0995EFCFCF93C82F809134039091C6
:101000003503892B49F485E10E9432018C2F0E941F
:101010001501CF910C94C6070E94370385E10E9409
:1010200032018C2F0E94150183E290E00197F1F7C5
:101030000E940A01C82F0E9432038BE990E00197B9
:10104000F1F78C2FCF91089580911403811103C083
:1010500085E00E94FB0710920C03E8E5F3E089E0CD
:10106000DF011D928A95E9F70C94A107CF92DF92D8
:10107000EF92FF920E941E046B017C018091160387
:101080000E94DB02892BA1F00E941E046C197D09CD
:101090008E099F09693E73408105910578F382E0CE
:1010A0000E94B40780E0FF90EF90DF90CF9008950A
:1010B000FF90EF90DF90CF900C944503CF92DF929A
:1010C000EF92FF920F931F93CF93DF93CDB7DEB7CD
:1010D00029970FB6F894DEBF0FBECDBF80913403C1
:1010E0009091350310E0892B89F480913003909121
:1010F0003103DC01ED91FC910084F185E02D09952F
:10110000892BA1F00E94C607182FEFCF80911603FC
:101110000E94DB02892B51F40E944503182F6AE0DC
:1011200070E080E090E00E94EC03F0CF153129F0F0
:10113000163109F4A2C010E0AAC0809114038111F5
:1011400067C087E00E94FB0786E00E94FB07809152
:10115000340390913503892B01F50E94C607853130
:1011600009F056C015E08091340390913503892B26
:10117000B9F481E30E9432010E94C60790911703DF
:10118000911118C08431C1F00E94B40780911703F7
:101190008230B9F4115039F714C00E943608DFCFFD
:1011A0000E94370381E30E9432010E9432030E94B1
:1011B0003608E4CF843151F71092170381E0809311
:1011C0000C0310910C03112309F459C080913403CE
:1011D00090913503892BF9F48FE30E9432010E942C
:1011E000C607843109F04DC087E20E9432010E9497
:1011F000C607082FFE0131966F017F018E2D8C19D5
:10120000801760F50E94C607D7018D937D01F6CF48
:101210000E942408D6CF0E9437038FE30E94320138
:101220000E9432030E943608843159F50E94370328
:1012300087E20E9432010E940A01082FFE013196C6
:101240006F017F018E2D8C19801730F40E940A01E6
:10125000D7018D937D01F6CF0E94320310921703C0
:1012600081E080930C0389E0FE013196A8E5B3E0AC
:1012700001900D928A95E1F70AC00E94240811E0BE
:1012800006C090911703911102C00E94B407812FEC
:1012900029960FB6F894DEBF0FBECDBFDF91CF9178
:1012A0001F910F91FF90EF90DF90CF900895CF9214
:1012B000DF92EF92FF920F931F93CF93DF93CDB7FF
:1012C000DEB7A0970FB6F894DEBF0FBECDBFF0908B
:1012D0000C0380E0FF2009F47BC0809134039091DF
:1012E0003503892BC9F582E30E9432010E94C607AB
:1012F0008093130380911303843109F067C08091B8
:10130000340390913503892B89F587E30E943201DC
:101310008FEF0E9415010E94C607809134039091BF
:1013200035038E010F5F1F4F892B79F587E20E94ED
:1013300032010E94C607E82E80E28E1520F590E269
:10134000E92E68018C2D801B8E15D8F50E94C607EA
:10135000F60181936F01F6CF0E94370382E30E946A
:1013600032010E9432030E943608C2CF0E94370326
:1013700087E30E9432018FEF0E9415010E94320321
:101380000E943608CACFF12CDCCF0E94370387E2D7
:101390000E9432010E940A01E82EF0E2F81768F478
:1013A00080E2E82E68018C2D801B8E1540F40E948F
:1013B0000A01F60181936F01F6CFF12CF3CF0E9461
:1013C0003203FF20A1F083E00E94B4078091130351
:1013D000A0960FB6F894DEBF0FBECDBFDF91CF91C0
:1013E0001F910F91FF90EF90DF90CF90089580E2D2
:1013F000F801A8E3B3E001900D928A95E1F7E6CFFA
:10140000CF93FC012081222369F14CE050E0BC0124
:1014100082E293E00E94301D809134039091350365
:10142000019711F40E9437038FE20E9432018091EC
:10143000340390913503C0E0892BF9F462E273E044
:1014400080913003909131030E94070680E00E9452
:10145000150180913403909135030197C9F4CF9120
:101460000C9432034BE050E068E373E082E293E0D7
:101470000E94301D10922D03CFCFEC2FF0E0EE5DD7
:10148000FC4F8081882311F30E941501CF5FF5CFB7
:10149000CF910895EF92FF921F93CF93DF9300D0E7
:1014A000CDB7DEB780910C0310E0882309F44FC05C
:1014B00011E080911003813009F010E08091340335
:1014C00090913503892B09F04BC086E30E943201CD
:1014D000812F0E9415010E94C607182F80910C03CE
:1014E000882399F1109211036FE571E0CE01019606
:1014F0000E94291D8FE591E00E94000A0E94570971
:101500006FE571E0CE0101960E944A160097C1F086
:1015100020911703211114C0FC0101900020E9F76C
:101520003197E81BF90B399758F420910C032111DE
:101530000E94000A0E9457098431F9F40E944A0A65
:101540000FB6F894DEBF0FBECDBF0E94A107812F5A
:101550000F900F90DF91CF911F91FF90EF90089522
:101560000E94370386E30E943201812F0E941501F9
:101570000E9432030E943608B0CF809111038F5F22
:10158000809311036FE571E090E080E0BDCFCF93D1
:10159000DF93EC0188819981009711F00E94DA1B9A
:1015A000198218821D821C821B821A82DF91CF91C0
:1015B0000895FC0180819181009711F00C94DA1B51
:1015C00008950C94DA1B0F931F93CF93DF93EC01D4
:1015D00088819981009759F02A813B812617370726
:1015E00030F081E0DF91CF911F910F9108958B0131
:1015F0006F5F7F4F0E94631C009759F09983888327
:101600001B830A832C813D81232B59F7FC01108217
:10161000E8CF80E0E7CFEF92FF920F931F93CF9335
:10162000DF936115710541F480E0DF91CF911F9147
:101630000F91FF90EF90089541155105B1F07B0196
:10164000EC010C811D81040F151FB8010E94E30AF3
:10165000882351F3288139818C819D81B701820FC4
:10166000931F0E94291D1D830C8381E0DECFEF9222
:10167000FF920F931F93CF93DF93EC017B018A01BD
:10168000BA010E94E30A81110BC0CE010E94C70A71
:10169000CE01DF91CF911F910F91FF90EF900895B0
:1016A0001D830C83B701888199810E94291DF0CF89
:1016B000CF93DF93EC01FB018617970749F0608118
:1016C00071816115710541F0448155810E94370B8C
:1016D000CE01DF91CF9108950E94C70AF9CF1F92E2
:1016E0000F920FB60F9211242F933F934F935F9356
:1016F0006F937F938F939F93AF93BF93EF93FF93DA
:101700008DE692E00E942302FF91EF91BF91AF918D
:101710009F918F917F916F915F914F913F912F9109
:101720000F900FBE0F901F9018951F920F920FB63B
:101730000F9211242F938F939F93EF93FF93E09138
:101740007D02F0917E028081E0918302F09184021B
:1017500082FD1BC09081809186028F5F8F732091E4
:101760008702821741F0E0918602F0E0E359FD4FD5
:10177000958F80938602FF91EF919F918F912F918A
:101780000F900FBE0F901F9018958081F4CF1F927D
:101790000F920FB60F9211242F933F938F939F9325
:1017A000AF93BF9380914B0290914C02A0914D0258
:1017B000B0914E0230914A0223E0230F2D3758F5A5
:1017C0000196A11DB11D20934A0280934B02909374
:1017D0004C02A0934D02B0934E0280914F02909123
:1017E0005002A0915102B09152020196A11DB11D6B
:1017F00080934F0290935002A0935102B0935202F3
:10180000BF91AF919F918F913F912F910F900FBEFC
:101810000F901F90189526E8230F0296A11DB11D69
:10182000D2CF1F920F920FB60F9211240F900FBEBE
:101830000F901F9018951F920F920FB60F921124C0
:101840002F933F934F935F936F937F938F939F93C8
:10185000AF93BF93EF93FF93E0915402F091550241
:101860000995FF91EF91BF91AF919F918F917F91DA
:101870006F915F914F913F912F910F900FBE0F90FD
:101880001F901895CF938091340390913503892B45
:10189000A1F48DE30E9432010E94C607C82F8091F7
:1018A0001703811107C0CE3129F0C43119F08C2FF4
:1018B0000E94B4078C2FCF9108950E9437038DE3C7
:1018C0000E9432010E9432030E943608E7CFCF9374
:1018D000DF93CDE6D2E01B821A8288EE93E0A0E08F
:1018E000B0E08C839D83AE83BF838BE091E09983CE
:1018F000888385EC90E09D878C8784EC90E09F87BF
:101900008E8780EC90E0998B888B81EC90E09B8BAC
:101910008A8B82EC90E09D8B8C8B86EC90E09F8B89
:101920008E8B198E1A8E1B8E1C8EE9E7F3E01182C6
:101930001082138212821582148250E040E068EA1D
:1019400071E0CF010E94370BE1E6F3E013821282CF
:1019500085E291E0918380838CE084838FEF85839F
:101960008BE086838AE0878389E0808788E08187AF
:1019700087E082871386148615861686178681E08F
:101980000E94E104EAE0F3E08DE191E0918380833D
:101990001282138215821682178210861186128691
:1019A00015861786168680E580A711A615A614A6AB
:1019B00013A612A6D5A3C4A3D7A3C6A380E895E215
:1019C000A0E0B0E0808B918BA28BB38B81E084830D
:1019D000CAE6D2E082E1888381E18A8380E189835B
:1019E00061E081E10E948B0361E088810E948B03AA
:1019F00060E089810E948B0361E08A81DF91CF9151
:101A00000C940403CF93DF93CDB7DEB7AD970FB639
:101A1000F894DEBF0FBECDBF789484B5826084BDDC
:101A200084B5816084BD85B5826085BD85B58160E2
:101A300085BD80916E00816080936E001092810060
:101A4000809181008260809381008091810081601B
:101A500080938100809180008160809380008091DC
:101A6000B10084608093B1008091B0008160809368
:101A7000B00080917A00846080937A0080917A002F
:101A8000826080937A0080917A00816080937A00EE
:101A900080917A00806880937A001092C10061E0A2
:101AA0008EE00E948B0361E08FE00E948B0361E077
:101AB00082E00E948B0361E083E10E948B0361E07E
:101AC00083E00E948B0360E084E00E948B0360E06F
:101AD00086E00E948B0360E085E00E948B0361E05A
:101AE0008FE00E94040360E08EE00E94040360E047
:101AF00082E00E94040360E083E10E94040390E01E
:101B000080E00E94FB1980935C0282E090E00E94DA
:101B1000FB198093570280E180938100109280002E
:101B200022E13AE7309387002093860094E1909376
:101B3000810044E040935D0230938700209386004B
:101B4000909381002FE036E03093550220935402A9
:101B500091E090936F008093810082E00E94E10405
:101B600060E080E00E94CA0461E671E081E693E0F3
:101B70000E94070661E080E00E94CA0462E771E00B
:101B800081E693E00E94070668EB7BE080E090E04E
:101B90000E94EC036CE370E080E090E00E94EC03B4
:101BA0008091340390913503019709F0C0C0809172
:101BB00016038C3019F062E00E948B0361E0809183
:101BC00015030E948B0361E0809115030E940403BA
:101BD0001FB7F89480915302811127C0E2EBF1E026
:101BE0008491EEE9F1E09491E82FF0E0EE0FFF1F11
:101BF000E657FE4FA591B491EC91E92321F461E001
:101C00008AE00E94040361E08AE00E948B038CB5A5
:101C100080618CBD8CB580648CBD61E08DE00E94DC
:101C20008B0361E08BE00E948B03809153028F5FF6
:101C3000809353021FBF0E94370385E00E94320148
:101C40000E94320364E670E080E090E00E94EC03C2
:101C5000809116038C3069F40E9437038BE00E9458
:101C6000320186E10E94150180E90E9415010E945F
:101C700032038091340390913503892B09F031C1EF
:101C800086E00E94320181E00E9415010E94C60791
:101C90008E3F09F034C181E080930D031092170349
:101CA00085E00E94FB070E945E08FE0131966F01ED
:101CB00044244A94542C32018BE5E82E8AEEF82E07
:101CC0000E945E08882341F080910C03882309F468
:101CD0001FC181E08093690284E00E94DB0280934F
:101CE000680286E00E94DB02182F8093670285E07D
:101CF0000E94DB0280936602C7010197F1F7809191
:101D00006502823009F441C208F005C1882309F454
:101D10003BC1813009F4BCC180E090E0892B81F2A5
:101D20000E940F02882341F20E940000C5CF8091DB
:101D30000E03882351F040E855E260E070E08091A6
:101D40002E0390912F030E94440185E00E943201EE
:101D500064E670E080E090E00E94EC0380910E0366
:101D6000882309F486CF80911A0390911B03A091D8
:101D70001C03B0911D0380389542A105B10509F4FB
:101D800078CF82E00E94320140911A0350911B03E8
:101D900060911C0370911D0380912E0390912F037D
:101DA000411531EE53076105710509F465C0411510
:101DB000A2EC5A07A1E06A07710509F471C0411548
:101DC0005B446105710509F07FC0DC01ED91FC9178
:101DD0000190F081E02D62E0099580912E039091B1
:101DE0002F03DC01ED91FC910190F081E02D69ED74
:101DF000099500912E0310912F03D801ED91FC91CC
:101E00000680F781E02DC8010995D8015296ED9121
:101E1000FC91539780818F7E80835296ED91FC9147
:101E200053978081877F80835296ED91FC915397E1
:101E300080818F7780835296ED91FC9153978081BA
:101E40008F7D80835A968C915A9759968C934091A6
:101E50001A0350911B0360911C0370911D03809124
:101E60002E0390912F030E94440162E070E080E015
:101E700090E00E94EC03FDCEDC01ED91FC9101901D
:101E8000F081E02D63E0099580912E0390912F035E
:101E9000DC01ED91FC910190F081E02D68E9A8CF83
:101EA000DC01ED91FC910190F081E02D63E009955A
:101EB00080912E0390912F03DC01ED91FC91019014
:101EC000F081E02D6CEC94CF80E895E2A0E0B0E0EA
:101ED00080931A0390931B03A0931C03B0931D03DC
:101EE00088CF0E94370386E00E94320181E00E9481
:101EF00015010E940A018E3F41F00E94320381E0E9
:101F00000E94B40710920D03CBCE0E943203C3CEC1
:101F100010926902E1CE843009F411C508F41FC49F
:101F2000853009F0F9CE80915602882309F4F7C56F
:101F3000813009F0F1CE61E083E00E94040360E0AB
:101F400080E00E94CA0464E172E081E693E00E94AE
:101F5000070661E080E00E94CA0466E372E081E661
:101F600093E00E94070680916602811148C6809125
:101F7000660281113AC685E00E94DB028093660208
:101F8000C7010197F1F7F3CF1092640280E18093CB
:101F9000810060E080E00E94CA0463E871E081E6AD
:101FA00093E00E9407068091690261E08823D1F1E5
:101FB00080E00E94CA046DE371E081E693E00E9434
:101FC0000706109263021092620210926102109250
:101FD000600210925F0210925E0261E08FE00E9448
:101FE000040360E08EE00E94040360E082E00E944F
:101FF000040360E083E10E94040360E083E00E9448
:10200000040380916702811118C0809167028111D9
:102010000FC086E00E94DB0280936702C701019730
:10202000F1F7F3CF80E00E94CA046EE471E0C5CFFF
:1020300081E0809365020E94D9048091660281113B
:1020400012C080916602811109C085E00E94DB0206
:1020500080936602C7010197F1F7F3CF83E0809385
:1020600065020E94D90480916802811155CE809149
:102070006802811109C084E00E94DB02809368023B
:10208000C7010197F1F7F3CF85E08093650215C48E
:1020900061E083E10E94040360E080E00E94CA04E2
:1020A00064E971E081E693E00E940706809169028D
:1020B00061E08823D1F080E00E94CA046DE371E002
:1020C00081E693E00E9407068091680281111AC0A0
:1020D0008091680281110FC084E00E94DB0280932E
:1020E0006802C7010197F1F7F3CF80E00E94CA04AC
:1020F0006EE471E0E5CF109265020E94D90480E1A0
:10210000809381008091670281111DC080916702D8
:10211000811109C086E00E94DB0280936702C7013B
:102120000197F1F7F3CF0E94D90482E08093650212
:1021300010928100109285001092840080915D02BF
:10214000806180938100809166028111E5CD80914C
:102150006602811109C085E00E94DB02809366025D
:10216000C7010197F1F7F3CF0E94D90482E0809371
:102170006502109281001092850010928400809177
:102180005D02806180938100C7CD61E083E00E94A1
:10219000040361E08EE00E94040360E08FE00E948F
:1021A00004038090580290905902A0905A02B09077
:1021B0005B0260915C0270E090E080E00E94DE18BB
:1021C000A50194010E94D71887FF07C060E083E152
:1021D0000E94040381E08093640280916402813054
:1021E00099F46091570270E090E080E00E94DE1860
:1021F0009B01AC01C501B4010E94D71887FF04C040
:10220000109265020E94D904111111C080916702D9
:10221000811109C086E00E94DB0280936702C7013A
:102220000197F1F7F3CF109265020E94D9048091D3
:102230000001813009F070CD80915E0290915F02C3
:10224000019690935F0280935E021BA21AA21DA2C8
:102250001CA21FA21EA2860122E044E0C501B40117
:102260000E942C16009709F495C1FC0101900020F2
:10227000E9F73197AF01481B590BBC01CE0182969B
:102280000E94370B80915E0290915F0219A618A6FA
:102290001BA61AA61DA61CA64AE0B6010E94761629
:1022A000F60101900020E9F73197AF014C195D0963
:1022B000B601CE0188960E94370B1A8219821C82C1
:1022C0001B821E821D82BE01685D7F4FC6010E9477
:1022D000580B41E050E065EA71E0C6010E940B0B2B
:1022E000811103C0C6010E94C70A4EA15FA16AA165
:1022F0007BA1C6010E940B0B811103C0C6010E9485
:10230000C70A41E050E067EA71E0C6010E940B0B8A
:10231000811103C0C6010E94C70AB60189E793E094
:102320000E94580BC6010E94D90ACE0188960E94CD
:10233000D90ACE0182960E94D90A1A8219821C8279
:102340001B821E821D8269E773E0C6010E94580B42
:102350008091790390917A03009709F422C16981F1
:102360007A816115710509F41AC140917B0350917E
:102370007C032D813E814217530708F410C10E944F
:10238000291D8D819E8190937E0380937D031E8203
:102390001D82C6010E94D90A00917D0310917E031F
:1023A0000F3F100729F00115110509F011C119821D
:1023B00080910C03882321F089EA91E00E94000AB1
:1023C0000E945709843109F062C080910C03882370
:1023D00009F45DC08091540390915503A091560378
:1023E000B09157038F3F2FEF9207A207B20709F46E
:1023F000FCC09170909319038093180340921E03C0
:1024000050921F0360922003709221038091340345
:1024100090913503019711F40E94370389E30E94DC
:10242000320180911E030E94150180911F030E94BA
:102430001501809120030E941501809121030E94C3
:1024400015018091340390913503892B09F0D0C098
:102450000E94C6078091540390915503A0915603A2
:10246000B091570340911E0350911F0360912003C8
:102470007091210384179507A607B70740F480934E
:102480001E0390931F03A0932003B0932103809118
:102490005C0390915D03A0915E03B0915F03892B73
:1024A0008A2B8B2B09F471C080910C03882309F4CB
:1024B0006CC030907D0381E0809310031092120372
:1024C00080911303823471F4809134039091350329
:1024D000892B09F092C084E30E9432010E94C60752
:1024E0008093130380911303843B21F40E945709C6
:1024F0008093130380911303843109F046C00E9436
:102500001E044B015C010E941E04681979098A09A6
:102510009B09683E73408105910518F082E00E9496
:10252000B40780910C03882381F180913603909148
:1025300037038130910509F4EBC008F468C082309C
:10254000910509F4AAC00397F1F61092370310928F
:1025500036032091120380911E0390911F03A091D6
:102560002003B0912103820F911DA11DB11D809305
:102570001E0390931F03A0932003B0932103109296
:1025800012030E94420C809313030E944A0A109285
:102590000001C2CBCE0182960E94C70A73CE0E9470
:1025A000DA1B89819A8190937A03809379038B81D6
:1025B0009C8190937C0380937B038D819E8190937B
:1025C0007E0380937D031A8219821C821B82DFCED8
:1025D0006091790370917A03A801C6010E94301DB1
:1025E000F601E00FF11F1082E3CE8FEF91E002CFF2
:1025F0000E9432030E9436082DCF0E94370384E3E5
:102600000E9432010E9432030E94360869CF8091F5
:102610001203132D181B8091340390913503892BDD
:1026200011F58CE30E943201812F0E94150180E098
:102630000E9415010E94C607182F8091170381116F
:1026400007C0143129F01E3119F0812F0E94B40700
:10265000109313031431B9F4E1E0F0E0F093370381
:10266000E093360350CF0E9437038CE30E9432017F
:10267000812F0E94150180E00E9415010E94320303
:102680000E943608D9CF1E3109F03DCF22E030E05C
:10269000309337032093360336CF10911203809185
:1026A000340390913503892BE1F48DE20E943201CD
:1026B0000E94C607A82FA10FBB27BB1F8D018091C9
:1026C000120390E080179107A4F48C0D9D1DFC016E
:1026D00080810E941501809112038F5F8093120305
:1026E000EECF0E9437038DE20E9432010E940A0160
:1026F000E1CF8091340390913503019711F40E944A
:102700003203809112033812A7CF23E030E0C0CF0C
:1027100080915C0390915D03A0915E03B0915F0393
:102720000097A105B10589F30197A109B10980932B
:102730005C0390935D03A0935E03B0935F030E94DC
:10274000420C80931303843129F4109237031092C2
:102750003603D9CE80911203381298CFD4CE80910F
:102760005602882309F44CC0813009F0D5CA809103
:102770005C02843650F461E086E00E94CA0460ED99
:1027800071E081E693E00E94070660E080E00E942D
:10279000CA0462ED71E081E693E00E94070661E001
:1027A00080E00E94CA0463EE71E081E693E00E943B
:1027B000070661E084E00E94CA0460915C0270E058
:1027C00090E080E04AE00E94970561E087E00E9487
:1027D000CA0468EE71E081E693E00E9407068091EA
:1027E0006602811174C080916602811169C085E022
:1027F0000E94DB0280936602C7010197F1F7F3CFD5
:1028000060E080E00E94CA0463EB71E081E693E03F
:102810000E94070661E084E00E94CA0460915C02A5
:1028200070E090E080E04AE00E94970561E087E078
:102830000E94CA0464EC71E081E693E00E940706FE
:1028400080916602811112C080916602811109C0D7
:1028500085E00E94DB0280936602C7010197F1F7D1
:10286000F3CF84E0809365020E94D90480916702CF
:10287000811110C080916702811109C086E00E9419
:10288000DB0280936702C7010197F1F7F3CF81E084
:10289000809356028091680281113ECA809168023D
:1028A000811109C084E00E94DB0280936802C701A5
:1028B0000197F1F7F3CF109265020E94D9042CCA58
:1028C00080915C028A3FA0F08AEF80935C02809145
:1028D0006702811119C08091670281110BC086E0E7
:1028E0000E94DB0280936702C7010197F1F7F3CFE3
:1028F0008F5FEBCF109256020E94D90460915C0268
:1029000090E080E00E94031A80916802811104CA5D
:1029100080916802811109C084E00E94DB028093EB
:102920006802C7010197F1F7F3CF80915C028F3104
:1029300020F48EE180935C02EFC98150FBCF80913F
:102940005602882309F44CC0813009F0E5C9809112
:102950005702843650F461E086E00E94CA0460EDBC
:1029600071E081E693E00E94070660E080E00E944B
:10297000CA0463E072E081E693E00E94070661E02A
:1029800080E00E94CA0463EE71E081E693E00E9459
:10299000070661E084E00E94CA046091570270E07B
:1029A00090E080E04AE00E94970561E087E00E94A5
:1029B000CA0468EE71E081E693E00E940706809108
:1029C0006602811172C080916602811166C085E045
:1029D0000E94DB0280936602C7010197F1F7F3CFF3
:1029E00060E080E00E94CA0462EF71E081E693E05B
:1029F0000E94070661E084E00E94CA0460915702C9
:102A000070E090E080E04AE00E94970561E087E096
:102A10000E94CA0464EC71E081E693E00E9407061C
:102A200080916602811112C080916602811109C0F5
:102A300085E00E94DB0280936602C7010197F1F7EF
:102A4000F3CF85E0809365020E94D90480916702EC
:102A5000811110C080916702811109C086E00E9437
:102A6000DB0280936702C7010197F1F7F3CF81E0A2
:102A7000809356028091680281114EC9809168024C
:102A8000811109C084E00E94DB0280936802C701C3
:102A90000197F1F7F3CF83E0F8CA80915702909144
:102AA0005C02891798F09093570280916702811118
:102AB0001BC08091670281110DC086E00E94DB027D
:102AC00080936702C7010197F1F7F3CF8F5F80937F
:102AD0005702EBCF109256020E94D9046091570220
:102AE00082E090E00E94031A80916802811114C96B
:102AF00080916802811109C084E00E94DB0280930A
:102B00006802C7010197F1F7F3CF809157028F3127
:102B100020F48EE180935702FFC88150FBCF60E024
:102B200083E00E94040360E080E00E94CA0464E144
:102B300072E081E693E00E94070661E080E00E9477
:102B4000CA0465E272E081E693E00E940706809184
:102B50006602811117C080916602811109C085E06B
:102B60000E94DB0280936602C7010197F1F7F3CF61
:102B700060E083E00E940403109265020E94D90481
:102B80001092560280916702811112C080916702F3
:102B9000811109C086E00E94DB0280936702C701B1
:102BA0000197F1F7F3CF81E0809356020E94D90498
:102BB000809168028111B0C880916802811109C0BA
:102BC00084E00E94DB0280936802C7010197F1F75D
:102BD000F3CF60E083E00E94040384E08093650209
:102BE0000E94D9041092560297C860E083E00E94C8
:102BF0000403109265020E94D9041092560280913B
:102C00006702811114C080916702811109C086E0BA
:102C10000E94DB0280936702C7010197F1F7F3CFAF
:102C200085E080936502109256020E94D90480913B
:102C30006802811171C8809168028111CACF84E055
:102C40000E94DB0280936802C7010197F1F7F3CF7E
:102C500089E793E00C94D90AEF920F931F93CF93D7
:102C6000DF93E80134E047FD34E1042E000C550BFE
:102C700057FF03C0519541955109E32E022F242F90
:102C8000AE010E949016CE01DF91CF911F910F915E
:102C9000EF9008954FE753E00E944F160895FA0110
:102CA000A191B081009719F41097E1F0CD01DC01FA
:102CB000CD010D90002011F4C00113C0FB01219142
:102CC000222319F02015D9F7F3CFFB01219120150C
:102CD00019F41E92119606C02223C1F70D90002010
:102CE000A1F7D001FA01A193B0830895BB27FB019E
:102CF0005527AA27880F991FAA1FA41710F0A41BF5
:102D000083955051B9F7A05DAA3308F0A95DA1934E
:102D1000009779F7B111B1931192CB010C94C718B8
:102D2000A9E0B0E0E6E9F6E10C94171A6A01F22E88
:102D3000B02E102FFBE3AF2EA01608F41BE31F5F8D
:102D4000012F27E0AE014F5F5F4F0E94EF17BC01DC
:102D50008981982F9970913009F43FC09BE2E1FC82
:102D600004C09E2D9170E0FC3AC05E2D5071E82F9A
:102D7000E87083FF46C084E0911101C083E0EF2D2D
:102D8000E81B8F1508F0E0E0D6018E2F20E25523D6
:102D900051F1992329F0D6019C93C60101966C014B
:102DA00096012D5F3F4FE2FE24C08EE4D6018C9346
:102DB00091E411969C93119712968C93D9018E2FC2
:102DC00090E281111BC0E20FF32FF11D10828EEFF4
:102DD0009FEF2996ECE00C94331A9DE2C6CF90E267
:102DE000C4CF2D9381508111FCCFCE0ED11CE0E0D9
:102DF000D0CF8EE6D6018C9391E6DBCF9D938150A8
:102E0000E0CF482F447082FF3DC084E0911101C0A3
:102E100083E08F1510F4EF2DE81BD6018E2F20E2F2
:102E2000552309F1992329F0D6019C93C6010196F7
:102E30006C0196012D5F3F4FE2FE1BC089E4D60175
:102E40008C938EE411968C93119786E412968C9352
:102E5000D9018E2F90E2882309F4B5CF9D9381503C
:102E6000FACF2D9381508111FCCFCE0ED11CE0E022
:102E7000D9CF89E6D6018C938EE611968C93119763
:102E800086E6E4CF9B0177FF02C030E020E0A1E0BE
:102E9000B0E0911102C0B0E0A0E0F9013196AE0FB0
:102EA000BF1F8B2C912CBB2009F461C05401EFEFA4
:102EB000AE1ABE0AAA0DBB1DFA161B0619F014F0B5
:102EC0004F2D4A1B511188C0E3FC59C07601A42F35
:102ED000B0E2A1114FC0C40ED11C992309F45BC00C
:102EE00040E0D6011196F60190836D01552309F457
:102EF00048C0012F060F9A81582F507184FF03C0DC
:102F0000913309F4015010160CF047C0093008F055
:102F100008E0EEE2FE2E5B01A01AB1088501919453
:102F2000819491082F3F320729F4D601FC92F601D3
:102F300031966F016217730794F1021713077CF53E
:102F4000DB01A21BB30BAA24A394B12CAC0EBD1EB3
:102F5000AA0DBB1D11968C9121503109D6011196F5
:102F600028153905F4F0F60180836D01DBCFB12C13
:102F7000A12CA0CFF701B1937F01A150AACF91114D
:102F8000B0CFD601942F50E302C05D9391509111C0
:102F9000FCCFC40ED11C40E0ACCF01E0BACF80E33F
:102FA000DBCF6217730731F4963388F4953311F44D
:102FB000552369F0F6018083FD01842F90E2811191
:102FC00008C0A40FB11D1C9290E080E002CF81E305
:102FD000F1CF91938150F3CF911183CF8ACF2830D5
:102FE00008F027E03327DA01990F311D87FD916042
:102FF00000966105710539F432602E5F3D9330E330
:103000002A95E1F708959F3F30F0803871056105FA
:1030100009F03C5F3C5F3D93913008F08068911D62
:10302000DF93CF931F930F93FF92EF92192F987F07
:103030009695E92F96959695E90FFF27EE53FF4F4A
:1030400099273327EE24FF24A701E7010590089470
:10305000079428F4360FE71EF81E491F511D660F0E
:10306000771F881F991F0694A1F70590079428F4ED
:10307000E70EF81E491F561FC11D770F881F991FA5
:10308000661F0694A1F70590079428F4F80E491FCF
:10309000561FC71FD11D880F991F661F771F0694E3
:1030A000A1F70590079420F4490F561FC71FD81F9A
:1030B000990F661F771F881F0694A9F784911095B2
:1030C000177041F0D695C79557954795F794E794B3
:1030D0001A95C1F7E8E6F0E06894159015913591DE
:1030E0006591959105907FE27395E118F10A430B84
:1030F000560BC90BD009C0F7E10CF11E431F561F38
:10310000C91FD01D7EF4703311F48A95E6CFE89480
:10311000015030F0080F0AF40027021708F4202F9E
:103120002395022F7A3328F079E37D932A95E9F7E6
:1031300010C07D932A9589F60694979567953795E3
:1031400017951794E118F10A430B560BC90BD009D8
:1031500098F023957E9173957A3308F070E37C9311
:103160002013B8F77E9170617D9330F0839571E301
:103170007D9370E32A95E1F71124EF90FF900F9172
:103180001F91CF91DF91992787FD90950895DC01DC
:10319000FC01672F71917723E1F7329704C07C918E
:1031A0006D9370836291AE17BF07C8F308950E94B4
:1031B000191908F481E00895E89409C097FB3EF4DA
:1031C00090958095709561957F4F8F4F9F4F992374
:1031D000A9F0F92F96E9BB279395F69587957795F2
:1031E0006795B795F111F8CFFAF4BB0F11F460FFB2
:1031F0001BC06F5F7F4F8F4F9F4F16C0882311F00A
:1032000096E911C0772321F09EE8872F762F05C01D
:10321000662371F096E8862F70E060E02AF09A95B8
:10322000660F771F881FDAF7880F9695879597F9AD
:103230000895990F0008550FAA0BE0E8FEEF161647
:103240001706E807F907C0F012161306E407F5079A
:1032500098F0621B730B840B950B39F40A2661F00E
:10326000232B242B252B21F408950A2609F4A140B1
:10327000A6958FEF811D811D08950E9450190C9411
:10328000C1190E94B31938F00E94BA1920F0952391
:1032900011F00C94AA190C94B01911240C94F5197E
:1032A0000E94D21970F3959FC1F3950F50E0551FFE
:1032B000629FF001729FBB27F00DB11D639FAA278B
:1032C000F00DB11DAA1F649F6627B00DA11D661FDA
:1032D000829F2227B00DA11D621F739FB00DA11DFB
:1032E000621F839FA00D611D221F749F3327A00DB5
:1032F000611D231F849F600D211D822F762F6A2F51
:1033000011249F5750409AF0F1F088234AF0EE0FB5
:10331000FF1FBB1F661F771F881F91505040A9F7E2
:103320009E3F510580F00C94AA190C94F5195F3F4B
:10333000E4F3983ED4F3869577956795B795F7951E
:10334000E7959F5FC1F7FE2B880F911D9695879596
:1033500097F9089597F99F6780E870E060E0089515
:103360009FEF80EC089500240A941616170618069D
:103370000906089500240A94121613061406050679
:103380000895092E0394000C11F4882352F0BB0F0A
:1033900040F4BF2B11F460FF04C06F5F7F4F8F4F6D
:1033A0009F4F089557FD9058440F551F59F05F3FA8
:1033B00071F04795880F97FB991F61F09F3F79F057
:1033C00087950895121613061406551FF2CF4695D9
:1033D000F1DF08C0161617061806991FF1CF86955B
:1033E0007105610508940895E894BB27662777273F
:1033F000CB0197F90895F999FECF92BD81BDF89A56
:10340000992780B50895262FF999FECF1FBA92BD4E
:1034100081BD20BD0FB6F894FA9AF99A0FBE0196B5
:1034200008952F923F924F925F926F927F928F9268
:103430009F92AF92BF92CF92DF92EF92FF920F9343
:103440001F93CF93DF93CDB7DEB7CA1BDB0B0FB64D
:10345000F894DEBF0FBECDBF09942A88398848880A
:103460005F846E847D848C849B84AA84B984C884A0
:10347000DF80EE80FD800C811B81AA81B981CE0F97
:10348000D11D0FB6F894DEBF0FBECDBFED0108957C
:103490005058BB27AA270E94601A0C94C1190E9499
:1034A000B31938F00E94BA1920F039F49F3F19F48B
:1034B00026F40C94B0190EF4E095E7FB0C94AA19CD
:1034C000E92F0E94D21958F3BA17620773078407CD
:1034D000950720F079F4A6F50C94F4190EF4E09514
:1034E0000B2EBA2FA02D0B01B90190010C01CA01BE
:1034F000A0011124FF27591B99F0593F50F4503E69
:1035000068F11A16F040A22F232F342F4427585F5A
:10351000F3CF469537952795A795F0405395C9F772
:103520007EF41F16BA0B620B730B840BBAF091502A
:10353000A1F0FF0FBB1F661F771F881FC2F70EC0C9
:10354000BA0F621F731F841F48F48795779567959C
:10355000B795F7959E3F08F0B0CF9395880F08F088
:103560009927EE0F9795879508950E94DA1988F0AC
:103570009F5798F0B92F9927B751B0F0E1F0660F37
:10358000771F881F991F1AF0BA95C9F714C0B13078
:1035900091F00E94F419B1E008950C94F419672F8A
:1035A000782F8827B85F39F0B93FCCF386957795A7
:1035B0006795B395D9F73EF4909580957095619590
:1035C0007F4F8F4F9F4F08950E94191908F48FEF76
:1035D00008950E941919880B990B089597FB072EDF
:1035E00016F4009407D077FD09D00E94241B07FC35
:1035F00005D03EF4909581959F4F08957095619503
:103600007F4F0895A1E21A2EAA1BBB1BFD010DC01E
:10361000AA1FBB1FEE1FFF1FA217B307E407F50782
:1036200020F0A21BB30BE40BF50B661F771F881F5E
:10363000991F1A9469F760957095809590959B01F4
:10364000AC01BD01CF010895AA1BBB1B51E107C00E
:10365000AA1FBB1FA617B70710F0A61BB70B881F22
:10366000991F5A95A9F780959095BC01CD010895B1
:10367000EE0FFF1F0590F491E02D09940F931F9317
:10368000CF93DF938230910510F482E090E0E091D7
:103690008303F091840330E020E0B0E0A0E03097B5
:1036A00099F42115310509F44AC0281B390B24303F
:1036B0003105D8F58A819B816115710589F1FB017E
:1036C00093838283FE0111C0408151810281138165
:1036D00048175907E0F04817590799F4109761F017
:1036E00012960C93129713961C933296CF01DF918A
:1036F000CF911F910F91089500938303109384033A
:10370000F4CF2115310551F04217530738F0A901C4
:10371000DB019A01BD01DF01F801C1CFEF01F9CF53
:103720009093840380938303CDCFFE01E20FF31FB8
:10373000819391932250310939832883D7CF2091E7
:10374000810330918203232B41F4209103013091B6
:103750000401309382032093810320910101309171
:1037600002012115310541F42DB73EB74091050105
:1037700050910601241B350BE0918103F0918203E7
:10378000E217F307A0F42E1B3F0B2817390778F038
:10379000AC014E5F5F4F2417350748F04E0F5F1F97
:1037A0005093820340938103819391939FCFF0E0E4
:1037B000E0E09CCFCF93DF930097E9F0FC013297D4
:1037C00013821282A0918303B0918403ED0130E053
:1037D00020E01097A1F420813181820F931F209166
:1037E0008103309182032817390709F061C0F093F3
:1037F0008203E0938103DF91CF910895EA01CE1710
:10380000DF07E8F54A815B819E0141155105B1F75B
:10381000E901FB83EA8349915991C40FD51FEC1745
:10382000FD0761F4808191810296840F951FE90163
:1038300099838883828193819B838A83F0E0E0E08F
:1038400012968D919C9113970097B9F52D913C910B
:103850001197CD010296820F931F20918103309121
:1038600082032817390739F6309751F510928403EF
:1038700010928303B0938203A0938103BCCFD383C0
:10388000C28340815181840F951FC817D90761F405
:103890004E5F5F4F88819981480F591F5183408344
:1038A0008A819B81938382832115310509F0B0CFF2
:1038B000F0938403E09383039ECFFD01DC01C0CF2E
:1038C00013821282D7CFB0E0A0E0E9E6FCE10C94CD
:1038D000131A8C01009751F4CB010E943E1B8C01FE
:1038E000C801CDB7DEB7E0E10C942F1AFC01E60F5A
:1038F000F71F9C0122503109E217F30708F49DC01D
:10390000D901CD91DC911197C617D70798F0C53032
:10391000D10530F3CE0104978617970708F3C61B2D
:10392000D70B2297C193D1936D937C93CF010E94C3
:10393000DA1BD6CF5B01AC1ABD0A4C018C0E9D1E62
:10394000A0918303B0918403512C412CF12CE12CE4
:10395000109731F580918103909182038815990524
:1039600009F05CC04616570608F058C08091010166
:1039700090910201009741F48DB79EB740910501E7
:1039800050910601841B950BE817F90708F055C004
:10399000F0938203E0938103F90171836083A0CFE8
:1039A0008D919C91119712966C90129713967C9022
:1039B0001397A815B90559F56C0142E0C40ED11C46
:1039C000CA14DB0420F1AC014A195B09DA01129632
:1039D000159780F06282738251834083D9016D9381
:1039E0007C93E114F10471F0D7011396FC93EE93EC
:1039F000129776CF22968C0F9D1FF90191838083B9
:103A0000F301EFCFF0938403E093830369CF48166B
:103A1000590608F42C017D01D3019ACFCB010E94F5
:103A20003E1B7C01009749F0AE01B8010E94201DA9
:103A3000C8010E94DA1B870153CF10E000E050CF8D
:103A4000FB01DC0102C001900D9241505040D8F7BB
:103A50000895FB01DC0101900D920020E1F708952B
:103A6000FB01DC014150504048F001900D920020D4
:103A7000C9F701C01D9241505040E0F7089510E091
:103A8000CFEDD0E004C0FE010E94381B2196C03E5D
:083A9000D107C9F7F894FFCF3C
:103A980001000085038000000000004502A501D256
:103AA8000192020302E101F501000000002D04E18A
:103AB8000A000000008205A5012A04A4013A006E4C
:103AC800616E00696E66006F76660043005553426A
:103AD80020434F4E45435441444F20202000555326
:103AE8004220444553434F4E45435441444F002FD1
:103AF800002020204D4543414C20494E4F5820205E
:103B0800200054454C3A2832372933333731323282
:103B18003330003C20202020204C494741522020AF
:103B280020203E004143454E444120415320434814
:103B3800414D4153002C000A004D4543414C2E4352
:103B48005356003C2054454D502E204D4158494D68
:103B580041203E002047524155532020202020205C
:103B68002000202054454D502E204D4158494D41AC
:103B78002020003C2020200020475241555320207F
:103B88003E003C2054454D502E204D494E494D4154
:103B9800203E00202054454D502E204D494E494D81
:103BA800412020003C20202043494C494E44524F9C
:103BB8002020203E0020202020204C494741522030
:103BC800202020202000202020204445534C494715
:083BD8004152202020200000D2
:00000001FF
